:0600000000F055EF00F0D6
:10000800FFFFFACF0DF0FBCF0EF0E9CF0FF0EACFEC
:1000180010F0E1CF11F0E2CF12F0D9CF13F0DACF20
:1000280014F0F3CF15F0F4CF16F0F6CF17F0F7CFA2
:1000380018F0F8CF19F0F5CF1AF09DAA01D001D029
:1000480007D09EAA01D001D003D09EEC09F000D0C1
:10005800F2AA01D001D007D0F2A401D001D003D078
:10006800FAEC07F000D01AC0F5FF19C0F8FF18C065
:10007800F7FF17C0F6FF16C0F4FF15C0F3FF14C052
:10008800DAFF13C0D9FF12C0E2FF11C0E1FF10C0B0
:10009800EAFF0FC0E9FF0EC0FBFF0DC0FAFF110019
:0600A800FFFFF9EF08F074
:100600000D0A4552524F520D0A000D0A52454C41F7
:10061000593A200041542B54494D45520041542B26
:1006200052454C4159000D0A4F4B0D0A0041542BC5
:100630005454530041542B54540041540030003161
:100640000000FFFF7AEC09F019EC09F03DEC07F02F
:10065000356E1F0E1B6E35508CEC09F000D000017A
:10066000000E2D6E0001800E2C6E130E2F6EC80E24
:100670002E6E8FEC06F02D502C10D8B401D001D086
:10068000EED70001000E1C6E0001800E1B6E060EE0
:100690001E6E3A0E1D6E5EEC08F01C501B10D8A4A6
:1006A00001D001D007D0060E1D6E260E1C6E2DEC5B
:1006B00008F0D5D70001000E1C6E0001800E1B6EE5
:1006C000060E1E6E1D0E1D6E000E206E080E1F6E95
:1006D000EDEC06F01C501B10D8A401D001D065D061
:1006E0000001000188513F0AD8A401D001D027D0D1
:1006F000060E1D6E0A0E1C6E2DEC08F08AB001D09D
:1007000001D005D0060E386E3D0E376E05D0060EB0
:10071000386E3F0E376E00D037C01CF038C01DF069
:100720002DEC08F0060E1D6E2A0E1C6E2DEC08F046
:10073000060E1D6E280E1C6E2DEC08F090D70001E1
:10074000000188513D0AD8A401D001D027D012D091
:1007500011D0D2EC09F01BD0DBEC09F018D053EC2F
:1007600009F015D0060E1D6E000E1C6E2DEC08F063
:1007700076D70DD0000100018951300AD8B4E9D7ED
:10078000010AD8B4E9D7650AD8B4E9D7EBD7060E81
:100790001D6E260E1C6E2DEC08F061D7060E1D6E28
:1007A000000E1C6E2DEC08F05AD70001000E1C6ED6
:1007B0000001800E1B6E060E1E6E140E1D6E000EC6
:1007C000206E080E1F6EEDEC06F01C501B10D8A416
:1007D00001D001D065D00001000188513D0AD8A4A4
:1007E00001D001D031D0890E356E000E366E35C085
:1007F00021F036C022F0E1EC04F021C039F022C033
:100800003AF039C04BF03AC04CF04D6A4E6AC7EC32
:1008100009F01BC043F01CC044F01DC045F01EC0D1
:1008200046F043C03BF044C03CF045C03DF046C0FC
:100830003EF0356E010E566E3550060E1D6E260EBC
:100840001C6E2DEC08F00BD70001000188510D0A39
:10085000D8A401D001D01DD0C7EC09F01BC043F0D3
:100860001CC044F01DC045F01EC046F043C03BF024
:1008700044C03CF045C03DF046C03EF0356E010E30
:10088000566E3550060E1D6E260E1C6E2DEC08F0B1
:10089000E6D6060E1D6E000E1C6E2DEC08F0DFD69F
:1008A0000001000E1C6E0001800E1B6E060E1E6EF7
:1008B0002D0E1D6E000E206E060E1F6EEDEC06F066
:1008C0001C501B10D8A401D001D036D0000100016B
:1008D00086513D0AD8A401D001D027D000010001E3
:1008E0008751300AD8B401D001D010D000010001E6
:1008F0008751310AD8B401D001D008D000010001DD
:100900008751540AD8A401D001D003D087C057F032
:1009100005D0356E540E576E355000D0060E1D6E44
:10092000260E1C6E2DEC08F09AD6060E1D6E000EDB
:100930001C6E2DEC08F093D60001000E1C6E000119
:10094000800E1B6E060E1E6E340E1D6E000E206E87
:10095000050E1F6EEDEC06F01C501B10D8A401D044
:1009600001D07DD60001000185513D0AD8A401D0F7
:1009700001D01BD0860E356E000E366E35C021F0CC
:1009800036C022F0E1EC04F021C039F022C03AF088
:1009900039C04BF03AC04CF04D6A4E6A060E1D6EDF
:1009A000260E1C6E2DEC08F05AD6060E1D6E000E9B
:1009B0001C6E2DEC08F053D652D651D650D655EFBA
:1009C00000F0FFFF03D0214A222A00D021C0D9FF26
:1009D00022C0DAFFDF50200AD8B401D001D0F3D70B
:1009E00021C0D9FF22C0DAFFDF50090AD8B401D0F4
:1009F00001D0E9D700D0000E286E000E276E236EBE
:100A0000000E266E23502D0E21C0D9FF22C0DAFF22
:100A1000DF6201D001D004D0262A214A222A2DD01B
:100A20002B0E21C0D9FF22C0DAFFDF6201D001D036
:100A300024D0214A222A21D020D01FD027C01BF049
:100A400028C01CF0000E1E6E0A0E1D6ED8EC08F0B9
:100A500021C0D9FF22C0DAFFDF50236E23501B24B0
:100A6000246E000E1C20256ED00E2424276EFF0E4F
:100A70002520286E214A222A00D021C0D9FF22C079
:100A8000DAFFDF501B6E39EC09F0D8B001D001D08D
:100A9000D5D700D02650D8B401D001D00DD027C072
:100AA00023F028C024F0231E241E234A242A23C016
:100AB00021F024C022F004D027C021F028C022F069
:100AC0001200FFFFFFFF5650D8B401D001D060D014
:100AD00043C01BF044C01CF045C01DF046C01EF0D2
:100AE000B7EC08F04B501B5C4C501C584D501D5837
:100AF0004E501E58D8A001D001D019D00BD00AD02A
:100B0000DBEC09F00FD0D2EC09F00CD053EC09F07B
:100B100009D008D05750300AD8B4F5D7010AD8B454
:100B2000EFD7F4D7236E000E566E235031D0C7ECAA
:100B300009F01BC024F01CC025F01DC026F01EC00B
:100B400027F03E50271808E13D50261805E13C509B
:100B5000251802E13B502418D8B401D001D018D098
:100B600024C03BF025C03CF026C03DF027C03EF03D
:100B70008AA201D002D0010E01D0000E236E2346BE
:100B80008A502318FD0B23188A6E02D001D000D0A2
:100B90001200FFFFFFFFD8901B341D6E1C341E6E29
:100BA000510E1D24D96E000E1E20DA6EDECF24F009
:100BB000DDCF25F0D8901B341D6E1C341E6E530EF5
:100BC0001D24D96E000E1E20DA6EDECF21F0DDCF9F
:100BD00022F01BC01DF01CC01EF0070ED8901D3661
:100BE0001E36E82EFBD70101000E1D241F6E0101E9
:100BF000010E1E20206E24501F24D96E2550202067
:100C0000DA6EDF50236E2106D8A02206244A252A58
:100C10007F0E2416000E2516D8901B341D6E1C3432
:100C20001E6E510E1D24D96E000E1E20DA6E24C0D9
:100C3000DEFF25C0DDFFD8901B341D6E1C341E6EF8
:100C4000530E1D24D96E000E1E20DA6E21C0DEFF69
:100C500022C0DDFF235000D01200FFFFFFFFD8901D
:100C60000134046E0234056E4F0E0424D96E000E5A
:100C70000520DA6EDECF0AF0DDCF0BF0D89001341C
:100C8000046E0234056E530E0424D96E000E052046
:100C9000DA6EDECF08F0DDCF09F001C004F002C04B
:100CA00005F0070ED89004360536E82EFBD7010173
:100CB000000E0424066E0101010E0520076E0A5085
:100CC0000624D96E0B500720DA6E03C0DFFF084AF6
:100CD000092A0A4A0B2A7F0E0A16000E0B16D89014
:100CE0000134046E0234056E4F0E0424D96E000EDA
:100CF0000520DA6E0AC0DEFF0BC0DDFFD89001349C
:100D0000046E0234056E530E0424D96E000E0520C5
:100D1000DA6E08C0DEFF09C0DDFF1200FFFFFFFF33
:100D2000000E336E000E326E2CC0D9FF2DC0DAFFDC
:100D3000000EDF6E00D001D80BD00500FA6E2E50E9
:100D4000FD6E2F50FE6EF850FF6EFA501200FFFF3E
:100D5000000E1C6E000E1B6E67EC09F01BC030F01D
:100D60001CC031F031503010D8B401D001D0E3D7DD
:100D7000000E1C6E000E1B6ECAEC05F0346E34C003
:100D80001BF0ADEC09F01AD02CC0D9FF2DC0DAFF52
:100D9000000EDF6E2C4A2D2A32C02CF033C02DF00D
:100DA0001AD019D02CC0D9FF2DC0DAFF34C0DFFF14
:100DB0002C4A2D2A324A332ABED7BDD734500D0AC9
:100DC000D8B4E2D7EFD7B7D7B6D7B5D7000E2D6EC8
:100DD000000E2C6E00D01200FFFFFFFF3CD01BC0A6
:100DE000D9FF1CC0DAFFDF50D8B401D001D013D036
:100DF0001DC0F6FF1EC0F7FF0800FFFFF5CF21F072
:100E00001BC0D9FF1CC0DAFFDF502118D8B401D0B5
:100E100001D01CD000D01DC0F6FF1EC0F7FF080097
:100E2000FFFFF550216E226A211E221E214A222A2E
:100E30001BC0D9FF1CC0DAFFDF50236E23502124D2
:100E40001B6E000E22201C6E16D015D01B4A1C2AC9
:100E50001D4A1E2A00D01F06D8A020061F28D8B47D
:100E60002028D8A401D001D0BAD700D0000E1C6E23
:100E7000000E1B6E00D01200FFFFFFFF000E1E6E63
:100E8000000E1D6E1E501D10D8B401D001D002D02E
:100E900037D036D0D8901D341B6E1E341C6E4F0ECA
:100EA0001B24D96E000E1C20DA6E000EDE6E000EC2
:100EB000DD6ED8901D341B6E1E341C6E510E1B242B
:100EC000D96E000E1C20DA6E000EDE6E000EDD6E96
:100ED000D8901D341B6E1E341C6E530E1B24D96E0D
:100EE000000E1C20DA6E000EDE6E000EDD6E1D4A56
:100EF0001E2A1E501D10D8B401D001D0CBD700D06F
:100F00001200FFFFFFFF0850051006100710D8B4AD
:100F100001D001D02FD0096E010E0A6E095007D002
:100F2000D89005360636073608360A2A00D008AEAD
:100F300001D001D0F5D701D000D00550015C06509A
:100F400002580750035808500458D8A001D001D0C7
:100F500009D00550015E0650025A0750035A085046
:100F6000045A00D0D89008320732063205320A2ED1
:100F7000E4D700D001C001F002C002F003C003F0CA
:100F800004C004F01200FFFFFFFF47C023F048C079
:100F900024F049C025F04AC026F000D023C01FF03D
:100FA00024C020F025C021F026C022F01F1E201EE4
:100FB000211E221E1F2A000E2022212222224750FB
:100FC0001F24276E48502020286E49502120296E6A
:100FD0004A5022202A6E1B50275C1C5028581D5056
:100FE00029581E502A58D8A001D001D0D7D700D0F8
:100FF0001200FFFFFFFFF294FF0ED76E630ED66E56
:10100000010E4726000E4822000E4922000E4A22F9
:1010100047C001F048C002F049C003F04AC004F0E4
:10102000E80E056E030E066E000E076E000E086ECB
:1010300082EC07F00450011002100310D8A401D074
:1010400001D009D0010E3F26000E4022000E4122A1
:10105000000E422200D01200FFFFFFFF01D000D09F
:10106000BBEC09F00009D8A401D001D0F9D703D016
:1010700002D001D000D0BBEC09F00009D8A401D007
:1010800001D0F9D700D01CC0F6FF1DC0F7FF080043
:10109000FFFFF5CF1BF0ADEC09F01CC0F6FF1DC043
:1010A000F7FF1C4A1D2A0800FFFFF5500009D8A4CD
:1010B00001D001D0E0D700D01200FFFFFFFF05D024
:1010C0001B4A1C2A1D4A1E2A00D01BC0D9FF1CC067
:1010D000DAFFDF501F6E1DC0F6FF1EC0F7FF0800CD
:1010E000FFFFF55000081F24206E206601D001D0BC
:1010F0000BD01BC0D9FF1CC0DAFFDF50D8A401D031
:1011000001D0DED701D000D020501B6E1C6A1BBE60
:101110001C0600D01200FFFFFFFF80B001D001D0FD
:1011200014D0320E1B6E000E1C6E000E1D6E000ED3
:101130001E6EC4EC07F080B001D001D006D02B6E3B
:10114000010E556E2B5001D000D080A001D001D0EF
:101150000CD05550D8B401D001D007D053EC09F0D1
:101160002B6E000E556E2B5000D01200FFFFFFFFBC
:101170001BC01FF01CC020F01DC021F01EC022F0BB
:101180001F1E201E211E221E1F2A000E2022212289
:1011900022223F501F241B6E405020201C6E4150C5
:1011A00021201D6E425022201E6E00D01200FFFF33
:1011B000FFFF000E206E000E1F6E00D01BA001D09E
:1011C00001D005D01D501F261E50202200D0D890DF
:1011D0001D361E36D8901C321B321C501B10D8A452
:1011E00001D001D0EBD71FC01BF020C01CF01200B3
:1011F000FFFF01EE00F0800EEE6AE806FDE100EE72
:1012000080F0800EEE6AE806FDE100EE3BF01C0E79
:10121000EE6AE806FDE1EE0EF66E130EF76E000EB6
:10122000F86E0900F5CF57F0000EF86E000121EFBF
:1012300003F0FFFFD58CD59AD596D550F80B04094D
:10124000D56EFF0ED76E630ED66E000E476E000E83
:10125000486E000E496E000E4A6E000E3F6E000E84
:10126000406E000E416E000E426EF28AD58E120064
:10127000FFFFFFFF1C6E000E1D6E1C503A0E1B6020
:1012800001D001D00AD02F0E1B6401D001D005D0AF
:101290001C6E010E1D6E1C5000D01DC01CF01C30B9
:1012A00000D01200FFFFFFFF8AA001D002D0010E84
:1012B00001D0000E1B6E8A501B18FE0B1B188A6E85
:1012C0008AA002D08A8201D08A921200FFFFFFFF1B
:1012D000D8901B341D6E1C341E6E530E1D24D96E07
:1012E000000E1E20DA6EDECF1BF0DDCF1CF000D02A
:1012F0001200FFFFFFFF000EC26EC150F00B070986
:10130000C16E948E949C9390939292808A908A92CC
:10131000F2EC09F01200FFFFFFFFAB8EAB9CAB9627
:10132000AB94AB92AC9CAC98AC94948E949C1BC048
:10133000AFFFAB88AC8A9D8A1200FFFFFFFF9E9A29
:10134000EBEC09F00C6E000E026E000E016E0CC08C
:1013500003F02EEC06F01200FFFFFFFF01D000D0DB
:10136000BBEC09F00009D8A401D001D0F9D71BC00B
:10137000ADFF1200FFFFFFFFACB201D001D003D0E0
:10138000010E03D002D0000E00D01200FFFFFFFFBD
:101390003FC01BF040C01CF041C01DF042C01EF019
:1013A0001200FFFFFFFF8A908AA002D08A8201D03C
:1013B0008A921200FFFFFFFF8A808AA002D08A82F1
:1013C00001D08A921200FFFFFFFF8CEC08F062EC64
:1013D00005F01200FFFFFFFFAECF01F0015000D07B
:1013E0001200FFFFFFFFD09EF28E1200FFFF54009D
:020000040030CA
:04000000FF220D0EC0
:0200060081FF78
:00000001FF
